{"contracts/AgentMarket.sol":{"AgentMarket":{"abi":[{"inputs":[],"stateMutability":"nonpayable","type":"constructor"},{"inputs":[],"name":"AlreadyRegistered","type":"error"},{"inputs":[],"name":"InsufficientPayment","type":"error"},{"inputs":[],"name":"NotRegistered","type":"error"},{"inputs":[],"name":"TransferFailed","type":"error"},{"inputs":[],"name":"Unauthorized","type":"error"},{"anonymous":false,"inputs":[{"indexed":true,"internalType":"address","name":"hirer","type":"address"},{"indexed":true,"internalType":"address","name":"agent","type":"address"},{"indexed":false,"internalType":"uint256","name":"amount","type":"uint256"},{"indexed":false,"internalType":"uint256","name":"fee","type":"uint256"},{"indexed":false,"internalType":"uint256","name":"timestamp","type":"uint256"}],"name":"AgentHired","type":"event"},{"anonymous":false,"inputs":[{"indexed":true,"internalType":"address","name":"agent","type":"address"},{"indexed":false,"internalType":"string","name":"name","type":"string"},{"indexed":false,"internalType":"uint256","name":"timestamp","type":"uint256"}],"name":"AgentRegistered","type":"event"},{"anonymous":false,"inputs":[{"indexed":true,"internalType":"address","name":"agent","type":"address"},{"indexed":true,"internalType":"address","name":"client","type":"address"},{"indexed":false,"internalType":"uint256","name":"amount","type":"uint256"},{"indexed":false,"internalType":"uint256","name":"timestamp","type":"uint256"}],"name":"JobCompleted","type":"event"},{"inputs":[],"name":"PROTOCOL_FEE_BPS","outputs":[{"internalType":"uint256","name":"","type":"uint256"}],"stateMutability":"view","type":"function"},{"inputs":[],"name":"REPUTATION_GAIN","outputs":[{"internalType":"uint256","name":"","type":"uint256"}],"stateMutability":"view","type":"function"},{"inputs":[{"internalType":"uint256","name":"","type":"uint256"}],"name":"agentAddresses","outputs":[{"internalType":"address","name":"","type":"address"}],"stateMutability":"view","type":"function"},{"inputs":[{"internalType":"address","name":"","type":"address"}],"name":"agents","outputs":[{"internalType":"string","name":"name","type":"string"},{"internalType":"string","name":"endpointUrl","type":"string"},{"internalType":"string","name":"mcpVersion","type":"string"},{"internalType":"address","name":"walletAddress","type":"address"},{"internalType":"uint256","name":"reputationScore","type":"uint256"},{"internalType":"uint256","name":"registeredAt","type":"uint256"},{"internalType":"bool","name":"isActive","type":"bool"}],"stateMutability":"view","type":"function"},{"inputs":[{"internalType":"address","name":"","type":"address"}],"name":"completedJobs","outputs":[{"internalType":"uint256","name":"","type":"uint256"}],"stateMutability":"view","type":"function"},{"inputs":[{"internalType":"address","name":"agent","type":"address"}],"name":"getAgent","outputs":[{"internalType":"string","name":"name","type":"string"},{"internalType":"string","name":"endpointUrl","type":"string"},{"internalType":"uint256","name":"reputation","type":"uint256"},{"internalType":"bool","name":"active","type":"bool"}],"stateMutability":"view","type":"function"},{"inputs":[{"internalType":"address","name":"agent","type":"address"}],"name":"hireAgent","outputs":[],"stateMutability":"payable","type":"function"},{"inputs":[{"internalType":"address","name":"","type":"address"}],"name":"isRegistered","outputs":[{"internalType":"bool","name":"","type":"bool"}],"stateMutability":"view","type":"function"},{"inputs":[],"name":"owner","outputs":[{"internalType":"address","name":"","type":"address"}],"stateMutability":"view","type":"function"},{"inputs":[],"name":"protocolTreasury","outputs":[{"internalType":"address","name":"","type":"address"}],"stateMutability":"view","type":"function"},{"inputs":[{"components":[{"internalType":"string","name":"name","type":"string"},{"internalType":"string","name":"endpointUrl","type":"string"},{"internalType":"string[]","name":"capabilities","type":"string[]"},{"internalType":"string","name":"mcpVersion","type":"string"},{"internalType":"address","name":"walletAddress","type":"address"},{"internalType":"uint256","name":"reputationScore","type":"uint256"},{"internalType":"uint256","name":"registeredAt","type":"uint256"},{"internalType":"bool","name":"isActive","type":"bool"}],"internalType":"struct AgentMarket.AgentProfile","name":"profile","type":"tuple"}],"name":"registerAgent","outputs":[],"stateMutability":"nonpayable","type":"function"},{"inputs":[{"internalType":"address","name":"_treasury","type":"address"}],"name":"setTreasury","outputs":[],"stateMutability":"nonpayable","type":"function"},{"inputs":[],"name":"totalAgentsRegistered","outputs":[{"internalType":"uint256","name":"","type":"uint256"}],"stateMutability":"view","type":"function"},{"inputs":[{"internalType":"address","name":"","type":"address"}],"name":"totalEarnings","outputs":[{"internalType":"uint256","name":"","type":"uint256"}],"stateMutability":"view","type":"function"},{"inputs":[{"internalType":"address","name":"","type":"address"}],"name":"totalSpent","outputs":[{"internalType":"uint256","name":"","type":"uint256"}],"stateMutability":"view","type":"function"},{"inputs":[],"name":"totalTransactionVolume","outputs":[{"internalType":"uint256","name":"","type":"uint256"}],"stateMutability":"view","type":"function"}],"evm":{"bytecode":{"linkReferences":{},"object":"608080604052346100325760018060a01b03193381600754161760075533906006541617600655610f4190816100388239f35b600080fdfe608080604052600436101561001357600080fd5b60003560e01c9081631e81d05a14610cd85750806355f1f31014610c9a5780636a01703f14610c7e578063803db96d14610c555780638511700514610c175780638da5cb5b14610bee578063a7676a6314610bac578063a8949b4614610b6e578063be37822814610b52578063c3c5a54714610b0f578063c6e6bf5314610446578063f0f44260146103ee578063f2f7468914610249578063f839f3191461022b578063fb3551ff1461019d5763fd66091e146100cf57600080fd5b34610198576020366003190112610198576004356001600160a01b03818116918290036101985761016191600052600060205260406000209061011182610dc1565b9161011e60018201610dc1565b9061012b60038201610dc1565b926004820154169261017d60058301549161016f60ff600760068701549601541695604051998a9960e08b5260e08b0190610d24565b9089820360208b0152610d24565b908782036040890152610d24565b936060860152608085015260a0840152151560c08301520390f35b600080fd5b34610198576020366003190112610198576004356001600160a01b0381169081900361019857600052600060205261020c6040600020600581015460ff60078301541661021a6101f860016101f186610dc1565b9501610dc1565b604051958695608087526080870190610d24565b908582036020870152610d24565b916040840152151560608301520390f35b34610198576000366003190112610198576020600854604051908152f35b602080600319360112610198576001600160a01b0390600435828116919082900361019857816000526002815260ff60406000205416156103dc5734156103ca5760c8340234810460c8036103b4576127109004803403933485116103b457600080808088885af16102b9610ebf565b50156103a25760008080848194600654165af16102d4610ebf565b50156103a2578290816000526003835260406000206102f38154610eb0565b90558160005260048352604060002061030d868254610efe565b905533600052600583526040600020610327348254610efe565b905561033534600854610efe565b60085560405190348252838201524260408201527f055da9c5ce1d1999f017bb5c22b639cd6d29a14a2ae0fe865bfdb6adf59f717360603392a360405192835242908301527f6ae999cc14035780c0ded72e72bd2f445ab146ce7c18e4c5cc135e60ed1ed0e160403393a3005b6040516312171d8360e31b8152600490fd5b634e487b7160e01b600052601160045260246000fd5b60405163cd1c886760e01b8152600490fd5b60405163aba4733960e01b8152600490fd5b34610198576020366003190112610198576004356001600160a01b03818116918290036101985760075416330361043557600680546001600160a01b031916919091179055005b6040516282b42960e81b8152600490fd5b3461019857600319602036820112610198576001600160401b03600435116101985761010090600435360301126101985733600052600260205260ff60406000205416610afd5733600052600060205260406000206104af600435600401600435600401610e67565b9091906001600160401b038111610756576104ca8254610d64565b601f8111610acb575b506000601f8211600114610a6657819293600092610a5b575b50508160011b916000199060031b1c19161781555b610515602460043501600435600401610e67565b90919060018201906001600160401b038111610756576105358254610d64565b601f8111610a29575b506000601f82116001146109c357819293946000926109b8575b50508160011b916000199060031b1c19161790555b600435604481013590360360221901811215610198576004350160018060401b0360048201351161019857600481013560051b3603602482011361019857600160401b6004820135116107565760028201805460048301359182905590811161093c575b5060248101906002830160005260206000206000925b6004830135841061081e5784610607606460043501600435600401610e67565b919060038201906001600160401b038411610756576106268254610d64565b601f81116107e1575b50600090601f851160011461077757600794916000918361076c575b50508160011b916000199060031b1c19161790555b6004810180546001600160a01b031916331790556064600582015542600682015501805460ff1990811660019081179092559054600160401b811015610756578060016106b09201600155610cf3565b81549060031b9033821b9160018060a01b03901b191617905533600052600260205260016040600020918254161790556106eb600954610eb0565b6009557f023c5efe572c42192271951adb0e77f97d7fc84bc761d026189ac0861734682461071d600480350180610e67565b919082604051916040835281604084015260608301376000606084830101524260208201526060813394601f80199101168101030190a2005b634e487b7160e01b600052604160045260246000fd5b01359050858061064b565b601f198516918360005260206000209260005b8181106107c9575091600193918760079894106107af575b505050811b019055610660565b0135600019600384901b60f8161c191690558580806107a2565b9193602060018192878701358155019501920161078a565b61080e90836000526020600020601f870160051c81019160208810610814575b601f0160051c0190610e99565b8461062f565b9091508190610801565b61082b8160248501610e67565b906001600160401b038211610756576108448454610d64565b601f811161090a575b50600090601f831160011461089a57928260019493602093869560009261088f575b5050600019600383901b1c191690841b1785555b019201930192906105e7565b013590508a8061086f565b8460005260206000209160005b601f19851681106108f2575083602093600196938796938794601f198116106108d8575b505050811b018555610883565b0135600019600384901b60f8161c191690558a80806108cb565b909260206001819286860135815501940191016108a7565b61093690856000526020600020601f850160051c8101916020861061081457601f0160051c0190610e99565b8761084d565b60028301600052602060002090600483013582015b81830181106109615750506105d1565b8061096e60019254610d64565b8061097b575b5001610951565b601f811183146109915750600081555b86610974565b6000908282526109af601f60208420920160051c8201858301610e99565b8183555561098b565b013590508480610558565b601f198216948360005260206000209160005b878110610a115750836001959697106109f7575b505050811b01905561056d565b0135600019600384901b60f8161c191690558480806109ea565b909260206001819286860135815501940191016109d6565b610a5590836000526020600020601f840160051c8101916020851061081457601f0160051c0190610e99565b8461053e565b0135905083806104ec565b601f198216938360005260206000209160005b868110610ab35750836001959610610a99575b505050811b018155610501565b0135600019600384901b60f8161c19169055838080610a8c565b90926020600181928686013581550194019101610a79565b610af790836000526020600020601f840160051c8101916020851061081457601f0160051c0190610e99565b836104d3565b604051630ea075bf60e21b8152600490fd5b34610198576020366003190112610198576004356001600160a01b03811690819003610198576000526002602052602060ff604060002054166040519015158152f35b3461019857600036600319011261019857602060405160c88152f35b34610198576020366003190112610198576004356001600160a01b038116908190036101985760005260056020526020604060002054604051908152f35b346101985760203660031901126101985760043560015481101561019857610bd5602091610cf3565b905460405160039290921b1c6001600160a01b03168152f35b34610198576000366003190112610198576007546040516001600160a01b039091168152602090f35b34610198576020366003190112610198576004356001600160a01b038116908190036101985760005260046020526020604060002054604051908152f35b34610198576000366003190112610198576006546040516001600160a01b039091168152602090f35b3461019857600036600319011261019857602060405160058152f35b34610198576020366003190112610198576004356001600160a01b038116908190036101985760005260036020526020604060002054604051908152f35b34610198576000366003190112610198576020906009548152f35b600154811015610d0e57600160005260206000200190600090565b634e487b7160e01b600052603260045260246000fd5b919082519283825260005b848110610d50575050826000602080949584010152601f8019910116010190565b602081830181015184830182015201610d2f565b90600182811c92168015610d94575b6020831014610d7e57565b634e487b7160e01b600052602260045260246000fd5b91607f1691610d73565b601f909101601f19168101906001600160401b0382119082101761075657604052565b9060405191826000825492610dd584610d64565b908184526001948581169081600014610e445750600114610e01575b5050610dff92500383610d9e565b565b9093915060005260209081600020936000915b818310610e2c575050610dff93508201013880610df1565b85548884018501529485019487945091830191610e14565b915050610dff94506020925060ff191682840152151560051b8201013880610df1565b903590601e198136030182121561019857018035906001600160401b0382116101985760200191813603831361019857565b818110610ea4575050565b60008155600101610e99565b60001981146103b45760010190565b3d15610ef9573d906001600160401b0382116107565760405191610eed601f8201601f191660200184610d9e565b82523d6000602084013e565b606090565b919082018092116103b45756fea264697066735822122035ecd75365cae329e1140fdf231c6344c584a25d0309414d59940e5af2f4a6f464736f6c63430008130033","opcodes":"PUSH1 0x80 DUP1 PUSH1 0x40 MSTORE CALLVALUE PUSH2 0x32 JUMPI PUSH1 0x1 DUP1 PUSH1 0xA0 SHL SUB NOT CALLER DUP2 PUSH1 0x7 SLOAD AND OR PUSH1 0x7 SSTORE CALLER SWAP1 PUSH1 0x6 SLOAD AND OR PUSH1 0x6 SSTORE PUSH2 0xF41 SWAP1 DUP2 PUSH2 0x38 DUP3 CODECOPY RETURN JUMPDEST PUSH1 0x0 DUP1 REVERT INVALID PUSH1 0x80 DUP1 PUSH1 0x40 MSTORE PUSH1 0x4 CALLDATASIZE LT ISZERO PUSH2 0x13 JUMPI PUSH1 0x0 DUP1 REVERT JUMPDEST PUSH1 0x0 CALLDATALOAD PUSH1 0xE0 SHR SWAP1 DUP2 PUSH4 0x1E81D05A EQ PUSH2 0xCD8 JUMPI POP DUP1 PUSH4 0x55F1F310 EQ PUSH2 0xC9A JUMPI DUP1 PUSH4 0x6A01703F EQ PUSH2 0xC7E JUMPI DUP1 PUSH4 0x803DB96D EQ PUSH2 0xC55 JUMPI DUP1 PUSH4 0x85117005 EQ PUSH2 0xC17 JUMPI DUP1 PUSH4 0x8DA5CB5B EQ PUSH2 0xBEE JUMPI DUP1 PUSH4 0xA7676A63 EQ PUSH2 0xBAC JUMPI DUP1 PUSH4 0xA8949B46 EQ PUSH2 0xB6E JUMPI DUP1 PUSH4 0xBE378228 EQ PUSH2 0xB52 JUMPI DUP1 PUSH4 0xC3C5A547 EQ PUSH2 0xB0F JUMPI DUP1 PUSH4 0xC6E6BF53 EQ PUSH2 0x446 JUMPI DUP1 PUSH4 0xF0F44260 EQ PUSH2 0x3EE JUMPI DUP1 PUSH4 0xF2F74689 EQ PUSH2 0x249 JUMPI DUP1 PUSH4 0xF839F319 EQ PUSH2 0x22B JUMPI DUP1 PUSH4 0xFB3551FF EQ PUSH2 0x19D JUMPI PUSH4 0xFD66091E EQ PUSH2 0xCF JUMPI PUSH1 0x0 DUP1 REVERT JUMPDEST CALLVALUE PUSH2 0x198 JUMPI PUSH1 0x20 CALLDATASIZE PUSH1 0x3 NOT ADD SLT PUSH2 0x198 JUMPI PUSH1 0x4 CALLDATALOAD PUSH1 0x1 PUSH1 0x1 PUSH1 0xA0 SHL SUB DUP2 DUP2 AND SWAP2 DUP3 SWAP1 SUB PUSH2 0x198 JUMPI PUSH2 0x161 SWAP2 PUSH1 0x0 MSTORE PUSH1 0x0 PUSH1 0x20 MSTORE PUSH1 0x40 PUSH1 0x0 KECCAK256 SWAP1 PUSH2 0x111 DUP3 PUSH2 0xDC1 JUMP JUMPDEST SWAP2 PUSH2 0x11E PUSH1 0x1 DUP3 ADD PUSH2 0xDC1 JUMP JUMPDEST SWAP1 PUSH2 0x12B PUSH1 0x3 DUP3 ADD PUSH2 0xDC1 JUMP JUMPDEST SWAP3 PUSH1 0x4 DUP3 ADD SLOAD AND SWAP3 PUSH2 0x17D PUSH1 0x5 DUP4 ADD SLOAD SWAP2 PUSH2 0x16F PUSH1 0xFF PUSH1 0x7 PUSH1 0x6 DUP8 ADD SLOAD SWAP7 ADD SLOAD AND SWAP6 PUSH1 0x40 MLOAD SWAP10 DUP11 SWAP10 PUSH1 0xE0 DUP12 MSTORE PUSH1 0xE0 DUP12 ADD SWAP1 PUSH2 0xD24 JUMP JUMPDEST SWAP1 DUP10 DUP3 SUB PUSH1 0x20 DUP12 ADD MSTORE PUSH2 0xD24 JUMP JUMPDEST SWAP1 DUP8 DUP3 SUB PUSH1 0x40 DUP10 ADD MSTORE PUSH2 0xD24 JUMP JUMPDEST SWAP4 PUSH1 0x60 DUP7 ADD MSTORE PUSH1 0x80 DUP6 ADD MSTORE PUSH1 0xA0 DUP5 ADD MSTORE ISZERO ISZERO PUSH1 0xC0 DUP4 ADD MSTORE SUB SWAP1 RETURN JUMPDEST PUSH1 0x0 DUP1 REVERT JUMPDEST CALLVALUE PUSH2 0x198 JUMPI PUSH1 0x20 CALLDATASIZE PUSH1 0x3 NOT ADD SLT PUSH2 0x198 JUMPI PUSH1 0x4 CALLDATALOAD PUSH1 0x1 PUSH1 0x1 PUSH1 0xA0 SHL SUB DUP2 AND SWAP1 DUP2 SWAP1 SUB PUSH2 0x198 JUMPI PUSH1 0x0 MSTORE PUSH1 0x0 PUSH1 0x20 MSTORE PUSH2 0x20C PUSH1 0x40 PUSH1 0x0 KECCAK256 PUSH1 0x5 DUP2 ADD SLOAD PUSH1 0xFF PUSH1 0x7 DUP4 ADD SLOAD AND PUSH2 0x21A PUSH2 0x1F8 PUSH1 0x1 PUSH2 0x1F1 DUP7 PUSH2 0xDC1 JUMP JUMPDEST SWAP6 ADD PUSH2 0xDC1 JUMP JUMPDEST PUSH1 0x40 MLOAD SWAP6 DUP7 SWAP6 PUSH1 0x80 DUP8 MSTORE PUSH1 0x80 DUP8 ADD SWAP1 PUSH2 0xD24 JUMP JUMPDEST SWAP1 DUP6 DUP3 SUB PUSH1 0x20 DUP8 ADD MSTORE PUSH2 0xD24 JUMP JUMPDEST SWAP2 PUSH1 0x40 DUP5 ADD MSTORE ISZERO ISZERO PUSH1 0x60 DUP4 ADD MSTORE SUB SWAP1 RETURN JUMPDEST CALLVALUE PUSH2 0x198 JUMPI PUSH1 0x0 CALLDATASIZE PUSH1 0x3 NOT ADD SLT PUSH2 0x198 JUMPI PUSH1 0x20 PUSH1 0x8 SLOAD PUSH1 0x40 MLOAD SWAP1 DUP2 MSTORE RETURN JUMPDEST PUSH1 0x20 DUP1 PUSH1 0x3 NOT CALLDATASIZE ADD SLT PUSH2 0x198 JUMPI PUSH1 0x1 PUSH1 0x1 PUSH1 0xA0 SHL SUB SWAP1 PUSH1 0x4 CALLDATALOAD DUP3 DUP2 AND SWAP2 SWAP1 DUP3 SWAP1 SUB PUSH2 0x198 JUMPI DUP2 PUSH1 0x0 MSTORE PUSH1 0x2 DUP2 MSTORE PUSH1 0xFF PUSH1 0x40 PUSH1 0x0 KECCAK256 SLOAD AND ISZERO PUSH2 0x3DC JUMPI CALLVALUE ISZERO PUSH2 0x3CA JUMPI PUSH1 0xC8 CALLVALUE MUL CALLVALUE DUP2 DIV PUSH1 0xC8 SUB PUSH2 0x3B4 JUMPI PUSH2 0x2710 SWAP1 DIV DUP1 CALLVALUE SUB SWAP4 CALLVALUE DUP6 GT PUSH2 0x3B4 JUMPI PUSH1 0x0 DUP1 DUP1 DUP1 DUP9 DUP9 GAS CALL PUSH2 0x2B9 PUSH2 0xEBF JUMP JUMPDEST POP ISZERO PUSH2 0x3A2 JUMPI PUSH1 0x0 DUP1 DUP1 DUP5 DUP2 SWAP5 PUSH1 0x6 SLOAD AND GAS CALL PUSH2 0x2D4 PUSH2 0xEBF JUMP JUMPDEST POP ISZERO PUSH2 0x3A2 JUMPI DUP3 SWAP1 DUP2 PUSH1 0x0 MSTORE PUSH1 0x3 DUP4 MSTORE PUSH1 0x40 PUSH1 0x0 KECCAK256 PUSH2 0x2F3 DUP2 SLOAD PUSH2 0xEB0 JUMP JUMPDEST SWAP1 SSTORE DUP2 PUSH1 0x0 MSTORE PUSH1 0x4 DUP4 MSTORE PUSH1 0x40 PUSH1 0x0 KECCAK256 PUSH2 0x30D DUP7 DUP3 SLOAD PUSH2 0xEFE JUMP JUMPDEST SWAP1 SSTORE CALLER PUSH1 0x0 MSTORE PUSH1 0x5 DUP4 MSTORE PUSH1 0x40 PUSH1 0x0 KECCAK256 PUSH2 0x327 CALLVALUE DUP3 SLOAD PUSH2 0xEFE JUMP JUMPDEST SWAP1 SSTORE PUSH2 0x335 CALLVALUE PUSH1 0x8 SLOAD PUSH2 0xEFE JUMP JUMPDEST PUSH1 0x8 SSTORE PUSH1 0x40 MLOAD SWAP1 CALLVALUE DUP3 MSTORE DUP4 DUP3 ADD MSTORE TIMESTAMP PUSH1 0x40 DUP3 ADD MSTORE PUSH32 0x55DA9C5CE1D1999F017BB5C22B639CD6D29A14A2AE0FE865BFDB6ADF59F7173 PUSH1 0x60 CALLER SWAP3 LOG3 PUSH1 0x40 MLOAD SWAP3 DUP4 MSTORE TIMESTAMP SWAP1 DUP4 ADD MSTORE PUSH32 0x6AE999CC14035780C0DED72E72BD2F445AB146CE7C18E4C5CC135E60ED1ED0E1 PUSH1 0x40 CALLER SWAP4 LOG3 STOP JUMPDEST PUSH1 0x40 MLOAD PUSH4 0x12171D83 PUSH1 0xE3 SHL DUP2 MSTORE PUSH1 0x4 SWAP1 REVERT JUMPDEST PUSH4 0x4E487B71 PUSH1 0xE0 SHL PUSH1 0x0 MSTORE PUSH1 0x11 PUSH1 0x4 MSTORE PUSH1 0x24 PUSH1 0x0 REVERT JUMPDEST PUSH1 0x40 MLOAD PUSH4 0xCD1C8867 PUSH1 0xE0 SHL DUP2 MSTORE PUSH1 0x4 SWAP1 REVERT JUMPDEST PUSH1 0x40 MLOAD PUSH4 0xABA47339 PUSH1 0xE0 SHL DUP2 MSTORE PUSH1 0x4 SWAP1 REVERT JUMPDEST CALLVALUE PUSH2 0x198 JUMPI PUSH1 0x20 CALLDATASIZE PUSH1 0x3 NOT ADD SLT PUSH2 0x198 JUMPI PUSH1 0x4 CALLDATALOAD PUSH1 0x1 PUSH1 0x1 PUSH1 0xA0 SHL SUB DUP2 DUP2 AND SWAP2 DUP3 SWAP1 SUB PUSH2 0x198 JUMPI PUSH1 0x7 SLOAD AND CALLER SUB PUSH2 0x435 JUMPI PUSH1 0x6 DUP1 SLOAD PUSH1 0x1 PUSH1 0x1 PUSH1 0xA0 SHL SUB NOT AND SWAP2 SWAP1 SWAP2 OR SWAP1 SSTORE STOP JUMPDEST PUSH1 0x40 MLOAD PUSH3 0x82B429 PUSH1 0xE8 SHL DUP2 MSTORE PUSH1 0x4 SWAP1 REVERT JUMPDEST CALLVALUE PUSH2 0x198 JUMPI PUSH1 0x3 NOT PUSH1 0x20 CALLDATASIZE DUP3 ADD SLT PUSH2 0x198 JUMPI PUSH1 0x1 PUSH1 0x1 PUSH1 0x40 SHL SUB PUSH1 0x4 CALLDATALOAD GT PUSH2 0x198 JUMPI PUSH2 0x100 SWAP1 PUSH1 0x4 CALLDATALOAD CALLDATASIZE SUB ADD SLT PUSH2 0x198 JUMPI CALLER PUSH1 0x0 MSTORE PUSH1 0x2 PUSH1 0x20 MSTORE PUSH1 0xFF PUSH1 0x40 PUSH1 0x0 KECCAK256 SLOAD AND PUSH2 0xAFD JUMPI CALLER PUSH1 0x0 MSTORE PUSH1 0x0 PUSH1 0x20 MSTORE PUSH1 0x40 PUSH1 0x0 KECCAK256 PUSH2 0x4AF PUSH1 0x4 CALLDATALOAD PUSH1 0x4 ADD PUSH1 0x4 CALLDATALOAD PUSH1 0x4 ADD PUSH2 0xE67 JUMP JUMPDEST SWAP1 SWAP2 SWAP1 PUSH1 0x1 PUSH1 0x1 PUSH1 0x40 SHL SUB DUP2 GT PUSH2 0x756 JUMPI PUSH2 0x4CA DUP3 SLOAD PUSH2 0xD64 JUMP JUMPDEST PUSH1 0x1F DUP2 GT PUSH2 0xACB JUMPI JUMPDEST POP PUSH1 0x0 PUSH1 0x1F DUP3 GT PUSH1 0x1 EQ PUSH2 0xA66 JUMPI DUP2 SWAP3 SWAP4 PUSH1 0x0 SWAP3 PUSH2 0xA5B JUMPI JUMPDEST POP POP DUP2 PUSH1 0x1 SHL SWAP2 PUSH1 0x0 NOT SWAP1 PUSH1 0x3 SHL SHR NOT AND OR DUP2 SSTORE JUMPDEST PUSH2 0x515 PUSH1 0x24 PUSH1 0x4 CALLDATALOAD ADD PUSH1 0x4 CALLDATALOAD PUSH1 0x4 ADD PUSH2 0xE67 JUMP JUMPDEST SWAP1 SWAP2 SWAP1 PUSH1 0x1 DUP3 ADD SWAP1 PUSH1 0x1 PUSH1 0x1 PUSH1 0x40 SHL SUB DUP2 GT PUSH2 0x756 JUMPI PUSH2 0x535 DUP3 SLOAD PUSH2 0xD64 JUMP JUMPDEST PUSH1 0x1F DUP2 GT PUSH2 0xA29 JUMPI JUMPDEST POP PUSH1 0x0 PUSH1 0x1F DUP3 GT PUSH1 0x1 EQ PUSH2 0x9C3 JUMPI DUP2 SWAP3 SWAP4 SWAP5 PUSH1 0x0 SWAP3 PUSH2 0x9B8 JUMPI JUMPDEST POP POP DUP2 PUSH1 0x1 SHL SWAP2 PUSH1 0x0 NOT SWAP1 PUSH1 0x3 SHL SHR NOT AND OR SWAP1 SSTORE JUMPDEST PUSH1 0x4 CALLDATALOAD PUSH1 0x44 DUP2 ADD CALLDATALOAD SWAP1 CALLDATASIZE SUB PUSH1 0x22 NOT ADD DUP2 SLT ISZERO PUSH2 0x198 JUMPI PUSH1 0x4 CALLDATALOAD ADD PUSH1 0x1 DUP1 PUSH1 0x40 SHL SUB PUSH1 0x4 DUP3 ADD CALLDATALOAD GT PUSH2 0x198 JUMPI PUSH1 0x4 DUP2 ADD CALLDATALOAD PUSH1 0x5 SHL CALLDATASIZE SUB PUSH1 0x24 DUP3 ADD SGT PUSH2 0x198 JUMPI PUSH1 0x1 PUSH1 0x40 SHL PUSH1 0x4 DUP3 ADD CALLDATALOAD GT PUSH2 0x756 JUMPI PUSH1 0x2 DUP3 ADD DUP1 SLOAD PUSH1 0x4 DUP4 ADD CALLDATALOAD SWAP2 DUP3 SWAP1 SSTORE SWAP1 DUP2 GT PUSH2 0x93C JUMPI JUMPDEST POP PUSH1 0x24 DUP2 ADD SWAP1 PUSH1 0x2 DUP4 ADD PUSH1 0x0 MSTORE PUSH1 0x20 PUSH1 0x0 KECCAK256 PUSH1 0x0 SWAP3 JUMPDEST PUSH1 0x4 DUP4 ADD CALLDATALOAD DUP5 LT PUSH2 0x81E JUMPI DUP5 PUSH2 0x607 PUSH1 0x64 PUSH1 0x4 CALLDATALOAD ADD PUSH1 0x4 CALLDATALOAD PUSH1 0x4 ADD PUSH2 0xE67 JUMP JUMPDEST SWAP2 SWAP1 PUSH1 0x3 DUP3 ADD SWAP1 PUSH1 0x1 PUSH1 0x1 PUSH1 0x40 SHL SUB DUP5 GT PUSH2 0x756 JUMPI PUSH2 0x626 DUP3 SLOAD PUSH2 0xD64 JUMP JUMPDEST PUSH1 0x1F DUP2 GT PUSH2 0x7E1 JUMPI JUMPDEST POP PUSH1 0x0 SWAP1 PUSH1 0x1F DUP6 GT PUSH1 0x1 EQ PUSH2 0x777 JUMPI PUSH1 0x7 SWAP5 SWAP2 PUSH1 0x0 SWAP2 DUP4 PUSH2 0x76C JUMPI JUMPDEST POP POP DUP2 PUSH1 0x1 SHL SWAP2 PUSH1 0x0 NOT SWAP1 PUSH1 0x3 SHL SHR NOT AND OR SWAP1 SSTORE JUMPDEST PUSH1 0x4 DUP2 ADD DUP1 SLOAD PUSH1 0x1 PUSH1 0x1 PUSH1 0xA0 SHL SUB NOT AND CALLER OR SWAP1 SSTORE PUSH1 0x64 PUSH1 0x5 DUP3 ADD SSTORE TIMESTAMP PUSH1 0x6 DUP3 ADD SSTORE ADD DUP1 SLOAD PUSH1 0xFF NOT SWAP1 DUP2 AND PUSH1 0x1 SWAP1 DUP2 OR SWAP1 SWAP3 SSTORE SWAP1 SLOAD PUSH1 0x1 PUSH1 0x40 SHL DUP2 LT ISZERO PUSH2 0x756 JUMPI DUP1 PUSH1 0x1 PUSH2 0x6B0 SWAP3 ADD PUSH1 0x1 SSTORE PUSH2 0xCF3 JUMP JUMPDEST DUP2 SLOAD SWAP1 PUSH1 0x3 SHL SWAP1 CALLER DUP3 SHL SWAP2 PUSH1 0x1 DUP1 PUSH1 0xA0 SHL SUB SWAP1 SHL NOT AND OR SWAP1 SSTORE CALLER PUSH1 0x0 MSTORE PUSH1 0x2 PUSH1 0x20 MSTORE PUSH1 0x1 PUSH1 0x40 PUSH1 0x0 KECCAK256 SWAP2 DUP3 SLOAD AND OR SWAP1 SSTORE PUSH2 0x6EB PUSH1 0x9 SLOAD PUSH2 0xEB0 JUMP JUMPDEST PUSH1 0x9 SSTORE PUSH32 0x23C5EFE572C42192271951ADB0E77F97D7FC84BC761D026189AC08617346824 PUSH2 0x71D PUSH1 0x4 DUP1 CALLDATALOAD ADD DUP1 PUSH2 0xE67 JUMP JUMPDEST SWAP2 SWAP1 DUP3 PUSH1 0x40 MLOAD SWAP2 PUSH1 0x40 DUP4 MSTORE DUP2 PUSH1 0x40 DUP5 ADD MSTORE PUSH1 0x60 DUP4 ADD CALLDATACOPY PUSH1 0x0 PUSH1 0x60 DUP5 DUP4 ADD ADD MSTORE TIMESTAMP PUSH1 0x20 DUP3 ADD MSTORE PUSH1 0x60 DUP2 CALLER SWAP5 PUSH1 0x1F DUP1 NOT SWAP2 ADD AND DUP2 ADD SUB ADD SWAP1 LOG2 STOP JUMPDEST PUSH4 0x4E487B71 PUSH1 0xE0 SHL PUSH1 0x0 MSTORE PUSH1 0x41 PUSH1 0x4 MSTORE PUSH1 0x24 PUSH1 0x0 REVERT JUMPDEST ADD CALLDATALOAD SWAP1 POP DUP6 DUP1 PUSH2 0x64B JUMP JUMPDEST PUSH1 0x1F NOT DUP6 AND SWAP2 DUP4 PUSH1 0x0 MSTORE PUSH1 0x20 PUSH1 0x0 KECCAK256 SWAP3 PUSH1 0x0 JUMPDEST DUP2 DUP2 LT PUSH2 0x7C9 JUMPI POP SWAP2 PUSH1 0x1 SWAP4 SWAP2 DUP8 PUSH1 0x7 SWAP9 SWAP5 LT PUSH2 0x7AF JUMPI JUMPDEST POP POP POP DUP2 SHL ADD SWAP1 SSTORE PUSH2 0x660 JUMP JUMPDEST ADD CALLDATALOAD PUSH1 0x0 NOT PUSH1 0x3 DUP5 SWAP1 SHL PUSH1 0xF8 AND SHR NOT AND SWAP1 SSTORE DUP6 DUP1 DUP1 PUSH2 0x7A2 JUMP JUMPDEST SWAP2 SWAP4 PUSH1 0x20 PUSH1 0x1 DUP2 SWAP3 DUP8 DUP8 ADD CALLDATALOAD DUP2 SSTORE ADD SWAP6 ADD SWAP3 ADD PUSH2 0x78A JUMP JUMPDEST PUSH2 0x80E SWAP1 DUP4 PUSH1 0x0 MSTORE PUSH1 0x20 PUSH1 0x0 KECCAK256 PUSH1 0x1F DUP8 ADD PUSH1 0x5 SHR DUP2 ADD SWAP2 PUSH1 0x20 DUP9 LT PUSH2 0x814 JUMPI JUMPDEST PUSH1 0x1F ADD PUSH1 0x5 SHR ADD SWAP1 PUSH2 0xE99 JUMP JUMPDEST DUP5 PUSH2 0x62F JUMP JUMPDEST SWAP1 SWAP2 POP DUP2 SWAP1 PUSH2 0x801 JUMP JUMPDEST PUSH2 0x82B DUP2 PUSH1 0x24 DUP6 ADD PUSH2 0xE67 JUMP JUMPDEST SWAP1 PUSH1 0x1 PUSH1 0x1 PUSH1 0x40 SHL SUB DUP3 GT PUSH2 0x756 JUMPI PUSH2 0x844 DUP5 SLOAD PUSH2 0xD64 JUMP JUMPDEST PUSH1 0x1F DUP2 GT PUSH2 0x90A JUMPI JUMPDEST POP PUSH1 0x0 SWAP1 PUSH1 0x1F DUP4 GT PUSH1 0x1 EQ PUSH2 0x89A JUMPI SWAP3 DUP3 PUSH1 0x1 SWAP5 SWAP4 PUSH1 0x20 SWAP4 DUP7 SWAP6 PUSH1 0x0 SWAP3 PUSH2 0x88F JUMPI JUMPDEST POP POP PUSH1 0x0 NOT PUSH1 0x3 DUP4 SWAP1 SHL SHR NOT AND SWAP1 DUP5 SHL OR DUP6 SSTORE JUMPDEST ADD SWAP3 ADD SWAP4 ADD SWAP3 SWAP1 PUSH2 0x5E7 JUMP JUMPDEST ADD CALLDATALOAD SWAP1 POP DUP11 DUP1 PUSH2 0x86F JUMP JUMPDEST DUP5 PUSH1 0x0 MSTORE PUSH1 0x20 PUSH1 0x0 KECCAK256 SWAP2 PUSH1 0x0 JUMPDEST PUSH1 0x1F NOT DUP6 AND DUP2 LT PUSH2 0x8F2 JUMPI POP DUP4 PUSH1 0x20 SWAP4 PUSH1 0x1 SWAP7 SWAP4 DUP8 SWAP7 SWAP4 DUP8 SWAP5 PUSH1 0x1F NOT DUP2 AND LT PUSH2 0x8D8 JUMPI JUMPDEST POP POP POP DUP2 SHL ADD DUP6 SSTORE PUSH2 0x883 JUMP JUMPDEST ADD CALLDATALOAD PUSH1 0x0 NOT PUSH1 0x3 DUP5 SWAP1 SHL PUSH1 0xF8 AND SHR NOT AND SWAP1 SSTORE DUP11 DUP1 DUP1 PUSH2 0x8CB JUMP JUMPDEST SWAP1 SWAP3 PUSH1 0x20 PUSH1 0x1 DUP2 SWAP3 DUP7 DUP7 ADD CALLDATALOAD DUP2 SSTORE ADD SWAP5 ADD SWAP2 ADD PUSH2 0x8A7 JUMP JUMPDEST PUSH2 0x936 SWAP1 DUP6 PUSH1 0x0 MSTORE PUSH1 0x20 PUSH1 0x0 KECCAK256 PUSH1 0x1F DUP6 ADD PUSH1 0x5 SHR DUP2 ADD SWAP2 PUSH1 0x20 DUP7 LT PUSH2 0x814 JUMPI PUSH1 0x1F ADD PUSH1 0x5 SHR ADD SWAP1 PUSH2 0xE99 JUMP JUMPDEST DUP8 PUSH2 0x84D JUMP JUMPDEST PUSH1 0x2 DUP4 ADD PUSH1 0x0 MSTORE PUSH1 0x20 PUSH1 0x0 KECCAK256 SWAP1 PUSH1 0x4 DUP4 ADD CALLDATALOAD DUP3 ADD JUMPDEST DUP2 DUP4 ADD DUP2 LT PUSH2 0x961 JUMPI POP POP PUSH2 0x5D1 JUMP JUMPDEST DUP1 PUSH2 0x96E PUSH1 0x1 SWAP3 SLOAD PUSH2 0xD64 JUMP JUMPDEST DUP1 PUSH2 0x97B JUMPI JUMPDEST POP ADD PUSH2 0x951 JUMP JUMPDEST PUSH1 0x1F DUP2 GT DUP4 EQ PUSH2 0x991 JUMPI POP PUSH1 0x0 DUP2 SSTORE JUMPDEST DUP7 PUSH2 0x974 JUMP JUMPDEST PUSH1 0x0 SWAP1 DUP3 DUP3 MSTORE PUSH2 0x9AF PUSH1 0x1F PUSH1 0x20 DUP5 KECCAK256 SWAP3 ADD PUSH1 0x5 SHR DUP3 ADD DUP6 DUP4 ADD PUSH2 0xE99 JUMP JUMPDEST DUP2 DUP4 SSTORE SSTORE PUSH2 0x98B JUMP JUMPDEST ADD CALLDATALOAD SWAP1 POP DUP5 DUP1 PUSH2 0x558 JUMP JUMPDEST PUSH1 0x1F NOT DUP3 AND SWAP5 DUP4 PUSH1 0x0 MSTORE PUSH1 0x20 PUSH1 0x0 KECCAK256 SWAP2 PUSH1 0x0 JUMPDEST DUP8 DUP2 LT PUSH2 0xA11 JUMPI POP DUP4 PUSH1 0x1 SWAP6 SWAP7 SWAP8 LT PUSH2 0x9F7 JUMPI JUMPDEST POP POP POP DUP2 SHL ADD SWAP1 SSTORE PUSH2 0x56D JUMP JUMPDEST ADD CALLDATALOAD PUSH1 0x0 NOT PUSH1 0x3 DUP5 SWAP1 SHL PUSH1 0xF8 AND SHR NOT AND SWAP1 SSTORE DUP5 DUP1 DUP1 PUSH2 0x9EA JUMP JUMPDEST SWAP1 SWAP3 PUSH1 0x20 PUSH1 0x1 DUP2 SWAP3 DUP7 DUP7 ADD CALLDATALOAD DUP2 SSTORE ADD SWAP5 ADD SWAP2 ADD PUSH2 0x9D6 JUMP JUMPDEST PUSH2 0xA55 SWAP1 DUP4 PUSH1 0x0 MSTORE PUSH1 0x20 PUSH1 0x0 KECCAK256 PUSH1 0x1F DUP5 ADD PUSH1 0x5 SHR DUP2 ADD SWAP2 PUSH1 0x20 DUP6 LT PUSH2 0x814 JUMPI PUSH1 0x1F ADD PUSH1 0x5 SHR ADD SWAP1 PUSH2 0xE99 JUMP JUMPDEST DUP5 PUSH2 0x53E JUMP JUMPDEST ADD CALLDATALOAD SWAP1 POP DUP4 DUP1 PUSH2 0x4EC JUMP JUMPDEST PUSH1 0x1F NOT DUP3 AND SWAP4 DUP4 PUSH1 0x0 MSTORE PUSH1 0x20 PUSH1 0x0 KECCAK256 SWAP2 PUSH1 0x0 JUMPDEST DUP7 DUP2 LT PUSH2 0xAB3 JUMPI POP DUP4 PUSH1 0x1 SWAP6 SWAP7 LT PUSH2 0xA99 JUMPI JUMPDEST POP POP POP DUP2 SHL ADD DUP2 SSTORE PUSH2 0x501 JUMP JUMPDEST ADD CALLDATALOAD PUSH1 0x0 NOT PUSH1 0x3 DUP5 SWAP1 SHL PUSH1 0xF8 AND SHR NOT AND SWAP1 SSTORE DUP4 DUP1 DUP1 PUSH2 0xA8C JUMP JUMPDEST SWAP1 SWAP3 PUSH1 0x20 PUSH1 0x1 DUP2 SWAP3 DUP7 DUP7 ADD CALLDATALOAD DUP2 SSTORE ADD SWAP5 ADD SWAP2 ADD PUSH2 0xA79 JUMP JUMPDEST PUSH2 0xAF7 SWAP1 DUP4 PUSH1 0x0 MSTORE PUSH1 0x20 PUSH1 0x0 KECCAK256 PUSH1 0x1F DUP5 ADD PUSH1 0x5 SHR DUP2 ADD SWAP2 PUSH1 0x20 DUP6 LT PUSH2 0x814 JUMPI PUSH1 0x1F ADD PUSH1 0x5 SHR ADD SWAP1 PUSH2 0xE99 JUMP JUMPDEST DUP4 PUSH2 0x4D3 JUMP JUMPDEST PUSH1 0x40 MLOAD PUSH4 0xEA075BF PUSH1 0xE2 SHL DUP2 MSTORE PUSH1 0x4 SWAP1 REVERT JUMPDEST CALLVALUE PUSH2 0x198 JUMPI PUSH1 0x20 CALLDATASIZE PUSH1 0x3 NOT ADD SLT PUSH2 0x198 JUMPI PUSH1 0x4 CALLDATALOAD PUSH1 0x1 PUSH1 0x1 PUSH1 0xA0 SHL SUB DUP2 AND SWAP1 DUP2 SWAP1 SUB PUSH2 0x198 JUMPI PUSH1 0x0 MSTORE PUSH1 0x2 PUSH1 0x20 MSTORE PUSH1 0x20 PUSH1 0xFF PUSH1 0x40 PUSH1 0x0 KECCAK256 SLOAD AND PUSH1 0x40 MLOAD SWAP1 ISZERO ISZERO DUP2 MSTORE RETURN JUMPDEST CALLVALUE PUSH2 0x198 JUMPI PUSH1 0x0 CALLDATASIZE PUSH1 0x3 NOT ADD SLT PUSH2 0x198 JUMPI PUSH1 0x20 PUSH1 0x40 MLOAD PUSH1 0xC8 DUP2 MSTORE RETURN JUMPDEST CALLVALUE PUSH2 0x198 JUMPI PUSH1 0x20 CALLDATASIZE PUSH1 0x3 NOT ADD SLT PUSH2 0x198 JUMPI PUSH1 0x4 CALLDATALOAD PUSH1 0x1 PUSH1 0x1 PUSH1 0xA0 SHL SUB DUP2 AND SWAP1 DUP2 SWAP1 SUB PUSH2 0x198 JUMPI PUSH1 0x0 MSTORE PUSH1 0x5 PUSH1 0x20 MSTORE PUSH1 0x20 PUSH1 0x40 PUSH1 0x0 KECCAK256 SLOAD PUSH1 0x40 MLOAD SWAP1 DUP2 MSTORE RETURN JUMPDEST CALLVALUE PUSH2 0x198 JUMPI PUSH1 0x20 CALLDATASIZE PUSH1 0x3 NOT ADD SLT PUSH2 0x198 JUMPI PUSH1 0x4 CALLDATALOAD PUSH1 0x1 SLOAD DUP2 LT ISZERO PUSH2 0x198 JUMPI PUSH2 0xBD5 PUSH1 0x20 SWAP2 PUSH2 0xCF3 JUMP JUMPDEST SWAP1 SLOAD PUSH1 0x40 MLOAD PUSH1 0x3 SWAP3 SWAP1 SWAP3 SHL SHR PUSH1 0x1 PUSH1 0x1 PUSH1 0xA0 SHL SUB AND DUP2 MSTORE RETURN JUMPDEST CALLVALUE PUSH2 0x198 JUMPI PUSH1 0x0 CALLDATASIZE PUSH1 0x3 NOT ADD SLT PUSH2 0x198 JUMPI PUSH1 0x7 SLOAD PUSH1 0x40 MLOAD PUSH1 0x1 PUSH1 0x1 PUSH1 0xA0 SHL SUB SWAP1 SWAP2 AND DUP2 MSTORE PUSH1 0x20 SWAP1 RETURN JUMPDEST CALLVALUE PUSH2 0x198 JUMPI PUSH1 0x20 CALLDATASIZE PUSH1 0x3 NOT ADD SLT PUSH2 0x198 JUMPI PUSH1 0x4 CALLDATALOAD PUSH1 0x1 PUSH1 0x1 PUSH1 0xA0 SHL SUB DUP2 AND SWAP1 DUP2 SWAP1 SUB PUSH2 0x198 JUMPI PUSH1 0x0 MSTORE PUSH1 0x4 PUSH1 0x20 MSTORE PUSH1 0x20 PUSH1 0x40 PUSH1 0x0 KECCAK256 SLOAD PUSH1 0x40 MLOAD SWAP1 DUP2 MSTORE RETURN JUMPDEST CALLVALUE PUSH2 0x198 JUMPI PUSH1 0x0 CALLDATASIZE PUSH1 0x3 NOT ADD SLT PUSH2 0x198 JUMPI PUSH1 0x6 SLOAD PUSH1 0x40 MLOAD PUSH1 0x1 PUSH1 0x1 PUSH1 0xA0 SHL SUB SWAP1 SWAP2 AND DUP2 MSTORE PUSH1 0x20 SWAP1 RETURN JUMPDEST CALLVALUE PUSH2 0x198 JUMPI PUSH1 0x0 CALLDATASIZE PUSH1 0x3 NOT ADD SLT PUSH2 0x198 JUMPI PUSH1 0x20 PUSH1 0x40 MLOAD PUSH1 0x5 DUP2 MSTORE RETURN JUMPDEST CALLVALUE PUSH2 0x198 JUMPI PUSH1 0x20 CALLDATASIZE PUSH1 0x3 NOT ADD SLT PUSH2 0x198 JUMPI PUSH1 0x4 CALLDATALOAD PUSH1 0x1 PUSH1 0x1 PUSH1 0xA0 SHL SUB DUP2 AND SWAP1 DUP2 SWAP1 SUB PUSH2 0x198 JUMPI PUSH1 0x0 MSTORE PUSH1 0x3 PUSH1 0x20 MSTORE PUSH1 0x20 PUSH1 0x40 PUSH1 0x0 KECCAK256 SLOAD PUSH1 0x40 MLOAD SWAP1 DUP2 MSTORE RETURN JUMPDEST CALLVALUE PUSH2 0x198 JUMPI PUSH1 0x0 CALLDATASIZE PUSH1 0x3 NOT ADD SLT PUSH2 0x198 JUMPI PUSH1 0x20 SWAP1 PUSH1 0x9 SLOAD DUP2 MSTORE RETURN JUMPDEST PUSH1 0x1 SLOAD DUP2 LT ISZERO PUSH2 0xD0E JUMPI PUSH1 0x1 PUSH1 0x0 MSTORE PUSH1 0x20 PUSH1 0x0 KECCAK256 ADD SWAP1 PUSH1 0x0 SWAP1 JUMP JUMPDEST PUSH4 0x4E487B71 PUSH1 0xE0 SHL PUSH1 0x0 MSTORE PUSH1 0x32 PUSH1 0x4 MSTORE PUSH1 0x24 PUSH1 0x0 REVERT JUMPDEST SWAP2 SWAP1 DUP3 MLOAD SWAP3 DUP4 DUP3 MSTORE PUSH1 0x0 JUMPDEST DUP5 DUP2 LT PUSH2 0xD50 JUMPI POP POP DUP3 PUSH1 0x0 PUSH1 0x20 DUP1 SWAP5 SWAP6 DUP5 ADD ADD MSTORE PUSH1 0x1F DUP1 NOT SWAP2 ADD AND ADD ADD SWAP1 JUMP JUMPDEST PUSH1 0x20 DUP2 DUP4 ADD DUP2 ADD MLOAD DUP5 DUP4 ADD DUP3 ADD MSTORE ADD PUSH2 0xD2F JUMP JUMPDEST SWAP1 PUSH1 0x1 DUP3 DUP2 SHR SWAP3 AND DUP1 ISZERO PUSH2 0xD94 JUMPI JUMPDEST PUSH1 0x20 DUP4 LT EQ PUSH2 0xD7E JUMPI JUMP JUMPDEST PUSH4 0x4E487B71 PUSH1 0xE0 SHL PUSH1 0x0 MSTORE PUSH1 0x22 PUSH1 0x4 MSTORE PUSH1 0x24 PUSH1 0x0 REVERT JUMPDEST SWAP2 PUSH1 0x7F AND SWAP2 PUSH2 0xD73 JUMP JUMPDEST PUSH1 0x1F SWAP1 SWAP2 ADD PUSH1 0x1F NOT AND DUP2 ADD SWAP1 PUSH1 0x1 PUSH1 0x1 PUSH1 0x40 SHL SUB DUP3 GT SWAP1 DUP3 LT OR PUSH2 0x756 JUMPI PUSH1 0x40 MSTORE JUMP JUMPDEST SWAP1 PUSH1 0x40 MLOAD SWAP2 DUP3 PUSH1 0x0 DUP3 SLOAD SWAP3 PUSH2 0xDD5 DUP5 PUSH2 0xD64 JUMP JUMPDEST SWAP1 DUP2 DUP5 MSTORE PUSH1 0x1 SWAP5 DUP6 DUP2 AND SWAP1 DUP2 PUSH1 0x0 EQ PUSH2 0xE44 JUMPI POP PUSH1 0x1 EQ PUSH2 0xE01 JUMPI JUMPDEST POP POP PUSH2 0xDFF SWAP3 POP SUB DUP4 PUSH2 0xD9E JUMP JUMPDEST JUMP JUMPDEST SWAP1 SWAP4 SWAP2 POP PUSH1 0x0 MSTORE PUSH1 0x20 SWAP1 DUP2 PUSH1 0x0 KECCAK256 SWAP4 PUSH1 0x0 SWAP2 JUMPDEST DUP2 DUP4 LT PUSH2 0xE2C JUMPI POP POP PUSH2 0xDFF SWAP4 POP DUP3 ADD ADD CODESIZE DUP1 PUSH2 0xDF1 JUMP JUMPDEST DUP6 SLOAD DUP9 DUP5 ADD DUP6 ADD MSTORE SWAP5 DUP6 ADD SWAP5 DUP8 SWAP5 POP SWAP2 DUP4 ADD SWAP2 PUSH2 0xE14 JUMP JUMPDEST SWAP2 POP POP PUSH2 0xDFF SWAP5 POP PUSH1 0x20 SWAP3 POP PUSH1 0xFF NOT AND DUP3 DUP5 ADD MSTORE ISZERO ISZERO PUSH1 0x5 SHL DUP3 ADD ADD CODESIZE DUP1 PUSH2 0xDF1 JUMP JUMPDEST SWAP1 CALLDATALOAD SWAP1 PUSH1 0x1E NOT DUP2 CALLDATASIZE SUB ADD DUP3 SLT ISZERO PUSH2 0x198 JUMPI ADD DUP1 CALLDATALOAD SWAP1 PUSH1 0x1 PUSH1 0x1 PUSH1 0x40 SHL SUB DUP3 GT PUSH2 0x198 JUMPI PUSH1 0x20 ADD SWAP2 DUP2 CALLDATASIZE SUB DUP4 SGT PUSH2 0x198 JUMPI JUMP JUMPDEST DUP2 DUP2 LT PUSH2 0xEA4 JUMPI POP POP JUMP JUMPDEST PUSH1 0x0 DUP2 SSTORE PUSH1 0x1 ADD PUSH2 0xE99 JUMP JUMPDEST PUSH1 0x0 NOT DUP2 EQ PUSH2 0x3B4 JUMPI PUSH1 0x1 ADD SWAP1 JUMP JUMPDEST RETURNDATASIZE ISZERO PUSH2 0xEF9 JUMPI RETURNDATASIZE SWAP1 PUSH1 0x1 PUSH1 0x1 PUSH1 0x40 SHL SUB DUP3 GT PUSH2 0x756 JUMPI PUSH1 0x40 MLOAD SWAP2 PUSH2 0xEED PUSH1 0x1F DUP3 ADD PUSH1 0x1F NOT AND PUSH1 0x20 ADD DUP5 PUSH2 0xD9E JUMP JUMPDEST DUP3 MSTORE RETURNDATASIZE PUSH1 0x0 PUSH1 0x20 DUP5 ADD RETURNDATACOPY JUMP JUMPDEST PUSH1 0x60 SWAP1 JUMP JUMPDEST SWAP2 SWAP1 DUP3 ADD DUP1 SWAP3 GT PUSH2 0x3B4 JUMPI JUMP INVALID LOG2 PUSH5 0x6970667358 0x22 SLT KECCAK256 CALLDATALOAD 0xEC 0xD7 MSTORE8 PUSH6 0xCAE329E1140F 0xDF 0x23 SHR PUSH4 0x44C584A2 0x5D SUB MULMOD COINBASE 0x4D MSIZE SWAP5 0xE GAS CALLCODE DELEGATECALL 0xA6 DELEGATECALL PUSH5 0x736F6C6343 STOP ADDMOD SGT STOP CALLER "},"methodIdentifiers":{"PROTOCOL_FEE_BPS()":"be378228","REPUTATION_GAIN()":"6a01703f","agentAddresses(uint256)":"a7676a63","agents(address)":"fd66091e","completedJobs(address)":"55f1f310","getAgent(address)":"fb3551ff","hireAgent(address)":"f2f74689","isRegistered(address)":"c3c5a547","owner()":"8da5cb5b","protocolTreasury()":"803db96d","registerAgent((string,string,string[],string,address,uint256,uint256,bool))":"c6e6bf53","setTreasury(address)":"f0f44260","totalAgentsRegistered()":"1e81d05a","totalEarnings(address)":"85117005","totalSpent(address)":"a8949b46","totalTransactionVolume()":"f839f319"}}}}}