{
  "_format": "hh-sol-artifact-1",
  "contractName": "AgentMarket",
  "sourceName": "contracts/AgentMarket.sol",
  "abi": [
    {
      "inputs": [],
      "stateMutability": "nonpayable",
      "type": "constructor"
    },
    {
      "inputs": [],
      "name": "AlreadyRegistered",
      "type": "error"
    },
    {
      "inputs": [],
      "name": "InsufficientPayment",
      "type": "error"
    },
    {
      "inputs": [],
      "name": "NotRegistered",
      "type": "error"
    },
    {
      "inputs": [],
      "name": "TransferFailed",
      "type": "error"
    },
    {
      "inputs": [],
      "name": "Unauthorized",
      "type": "error"
    },
    {
      "anonymous": false,
      "inputs": [
        {
          "indexed": true,
          "internalType": "address",
          "name": "hirer",
          "type": "address"
        },
        {
          "indexed": true,
          "internalType": "address",
          "name": "agent",
          "type": "address"
        },
        {
          "indexed": false,
          "internalType": "uint256",
          "name": "amount",
          "type": "uint256"
        },
        {
          "indexed": false,
          "internalType": "uint256",
          "name": "fee",
          "type": "uint256"
        },
        {
          "indexed": false,
          "internalType": "uint256",
          "name": "timestamp",
          "type": "uint256"
        }
      ],
      "name": "AgentHired",
      "type": "event"
    },
    {
      "anonymous": false,
      "inputs": [
        {
          "indexed": true,
          "internalType": "address",
          "name": "agent",
          "type": "address"
        },
        {
          "indexed": false,
          "internalType": "string",
          "name": "name",
          "type": "string"
        },
        {
          "indexed": false,
          "internalType": "uint256",
          "name": "timestamp",
          "type": "uint256"
        }
      ],
      "name": "AgentRegistered",
      "type": "event"
    },
    {
      "anonymous": false,
      "inputs": [
        {
          "indexed": true,
          "internalType": "address",
          "name": "agent",
          "type": "address"
        },
        {
          "indexed": true,
          "internalType": "address",
          "name": "client",
          "type": "address"
        },
        {
          "indexed": false,
          "internalType": "uint256",
          "name": "amount",
          "type": "uint256"
        },
        {
          "indexed": false,
          "internalType": "uint256",
          "name": "timestamp",
          "type": "uint256"
        }
      ],
      "name": "JobCompleted",
      "type": "event"
    },
    {
      "inputs": [],
      "name": "PROTOCOL_FEE_BPS",
      "outputs": [
        {
          "internalType": "uint256",
          "name": "",
          "type": "uint256"
        }
      ],
      "stateMutability": "view",
      "type": "function"
    },
    {
      "inputs": [],
      "name": "REPUTATION_GAIN",
      "outputs": [
        {
          "internalType": "uint256",
          "name": "",
          "type": "uint256"
        }
      ],
      "stateMutability": "view",
      "type": "function"
    },
    {
      "inputs": [
        {
          "internalType": "uint256",
          "name": "",
          "type": "uint256"
        }
      ],
      "name": "agentAddresses",
      "outputs": [
        {
          "internalType": "address",
          "name": "",
          "type": "address"
        }
      ],
      "stateMutability": "view",
      "type": "function"
    },
    {
      "inputs": [
        {
          "internalType": "address",
          "name": "",
          "type": "address"
        }
      ],
      "name": "agents",
      "outputs": [
        {
          "internalType": "string",
          "name": "name",
          "type": "string"
        },
        {
          "internalType": "string",
          "name": "endpointUrl",
          "type": "string"
        },
        {
          "internalType": "string",
          "name": "mcpVersion",
          "type": "string"
        },
        {
          "internalType": "address",
          "name": "walletAddress",
          "type": "address"
        },
        {
          "internalType": "uint256",
          "name": "reputationScore",
          "type": "uint256"
        },
        {
          "internalType": "uint256",
          "name": "registeredAt",
          "type": "uint256"
        },
        {
          "internalType": "bool",
          "name": "isActive",
          "type": "bool"
        }
      ],
      "stateMutability": "view",
      "type": "function"
    },
    {
      "inputs": [
        {
          "internalType": "address",
          "name": "",
          "type": "address"
        }
      ],
      "name": "completedJobs",
      "outputs": [
        {
          "internalType": "uint256",
          "name": "",
          "type": "uint256"
        }
      ],
      "stateMutability": "view",
      "type": "function"
    },
    {
      "inputs": [
        {
          "internalType": "address",
          "name": "agent",
          "type": "address"
        }
      ],
      "name": "getAgent",
      "outputs": [
        {
          "internalType": "string",
          "name": "name",
          "type": "string"
        },
        {
          "internalType": "string",
          "name": "endpointUrl",
          "type": "string"
        },
        {
          "internalType": "uint256",
          "name": "reputation",
          "type": "uint256"
        },
        {
          "internalType": "bool",
          "name": "active",
          "type": "bool"
        }
      ],
      "stateMutability": "view",
      "type": "function"
    },
    {
      "inputs": [
        {
          "internalType": "address",
          "name": "agent",
          "type": "address"
        }
      ],
      "name": "hireAgent",
      "outputs": [],
      "stateMutability": "payable",
      "type": "function"
    },
    {
      "inputs": [
        {
          "internalType": "address",
          "name": "",
          "type": "address"
        }
      ],
      "name": "isRegistered",
      "outputs": [
        {
          "internalType": "bool",
          "name": "",
          "type": "bool"
        }
      ],
      "stateMutability": "view",
      "type": "function"
    },
    {
      "inputs": [],
      "name": "owner",
      "outputs": [
        {
          "internalType": "address",
          "name": "",
          "type": "address"
        }
      ],
      "stateMutability": "view",
      "type": "function"
    },
    {
      "inputs": [],
      "name": "protocolTreasury",
      "outputs": [
        {
          "internalType": "address",
          "name": "",
          "type": "address"
        }
      ],
      "stateMutability": "view",
      "type": "function"
    },
    {
      "inputs": [
        {
          "components": [
            {
              "internalType": "string",
              "name": "name",
              "type": "string"
            },
            {
              "internalType": "string",
              "name": "endpointUrl",
              "type": "string"
            },
            {
              "internalType": "string[]",
              "name": "capabilities",
              "type": "string[]"
            },
            {
              "internalType": "string",
              "name": "mcpVersion",
              "type": "string"
            },
            {
              "internalType": "address",
              "name": "walletAddress",
              "type": "address"
            },
            {
              "internalType": "uint256",
              "name": "reputationScore",
              "type": "uint256"
            },
            {
              "internalType": "uint256",
              "name": "registeredAt",
              "type": "uint256"
            },
            {
              "internalType": "bool",
              "name": "isActive",
              "type": "bool"
            }
          ],
          "internalType": "struct AgentMarket.AgentProfile",
          "name": "profile",
          "type": "tuple"
        }
      ],
      "name": "registerAgent",
      "outputs": [],
      "stateMutability": "nonpayable",
      "type": "function"
    },
    {
      "inputs": [
        {
          "internalType": "address",
          "name": "_treasury",
          "type": "address"
        }
      ],
      "name": "setTreasury",
      "outputs": [],
      "stateMutability": "nonpayable",
      "type": "function"
    },
    {
      "inputs": [],
      "name": "totalAgentsRegistered",
      "outputs": [
        {
          "internalType": "uint256",
          "name": "",
          "type": "uint256"
        }
      ],
      "stateMutability": "view",
      "type": "function"
    },
    {
      "inputs": [
        {
          "internalType": "address",
          "name": "",
          "type": "address"
        }
      ],
      "name": "totalEarnings",
      "outputs": [
        {
          "internalType": "uint256",
          "name": "",
          "type": "uint256"
        }
      ],
      "stateMutability": "view",
      "type": "function"
    },
    {
      "inputs": [
        {
          "internalType": "address",
          "name": "",
          "type": "address"
        }
      ],
      "name": "totalSpent",
      "outputs": [
        {
          "internalType": "uint256",
          "name": "",
          "type": "uint256"
        }
      ],
      "stateMutability": "view",
      "type": "function"
    },
    {
      "inputs": [],
      "name": "totalTransactionVolume",
      "outputs": [
        {
          "internalType": "uint256",
          "name": "",
          "type": "uint256"
        }
      ],
      "stateMutability": "view",
      "type": "function"
    }
  ],
  "bytecode": "0x608080604052346100325760018060a01b03193381600754161760075533906006541617600655610f4190816100388239f35b600080fdfe608080604052600436101561001357600080fd5b60003560e01c9081631e81d05a14610cd85750806355f1f31014610c9a5780636a01703f14610c7e578063803db96d14610c555780638511700514610c175780638da5cb5b14610bee578063a7676a6314610bac578063a8949b4614610b6e578063be37822814610b52578063c3c5a54714610b0f578063c6e6bf5314610446578063f0f44260146103ee578063f2f7468914610249578063f839f3191461022b578063fb3551ff1461019d5763fd66091e146100cf57600080fd5b34610198576020366003190112610198576004356001600160a01b03818116918290036101985761016191600052600060205260406000209061011182610dc1565b9161011e60018201610dc1565b9061012b60038201610dc1565b926004820154169261017d60058301549161016f60ff600760068701549601541695604051998a9960e08b5260e08b0190610d24565b9089820360208b0152610d24565b908782036040890152610d24565b936060860152608085015260a0840152151560c08301520390f35b600080fd5b34610198576020366003190112610198576004356001600160a01b0381169081900361019857600052600060205261020c6040600020600581015460ff60078301541661021a6101f860016101f186610dc1565b9501610dc1565b604051958695608087526080870190610d24565b908582036020870152610d24565b916040840152151560608301520390f35b34610198576000366003190112610198576020600854604051908152f35b602080600319360112610198576001600160a01b0390600435828116919082900361019857816000526002815260ff60406000205416156103dc5734156103ca5760c8340234810460c8036103b4576127109004803403933485116103b457600080808088885af16102b9610ebf565b50156103a25760008080848194600654165af16102d4610ebf565b50156103a2578290816000526003835260406000206102f38154610eb0565b90558160005260048352604060002061030d868254610efe565b905533600052600583526040600020610327348254610efe565b905561033534600854610efe565b60085560405190348252838201524260408201527f055da9c5ce1d1999f017bb5c22b639cd6d29a14a2ae0fe865bfdb6adf59f717360603392a360405192835242908301527f6ae999cc14035780c0ded72e72bd2f445ab146ce7c18e4c5cc135e60ed1ed0e160403393a3005b6040516312171d8360e31b8152600490fd5b634e487b7160e01b600052601160045260246000fd5b60405163cd1c886760e01b8152600490fd5b60405163aba4733960e01b8152600490fd5b34610198576020366003190112610198576004356001600160a01b03818116918290036101985760075416330361043557600680546001600160a01b031916919091179055005b6040516282b42960e81b8152600490fd5b3461019857600319602036820112610198576001600160401b03600435116101985761010090600435360301126101985733600052600260205260ff60406000205416610afd5733600052600060205260406000206104af600435600401600435600401610e67565b9091906001600160401b038111610756576104ca8254610d64565b601f8111610acb575b506000601f8211600114610a6657819293600092610a5b575b50508160011b916000199060031b1c19161781555b610515602460043501600435600401610e67565b90919060018201906001600160401b038111610756576105358254610d64565b601f8111610a29575b506000601f82116001146109c357819293946000926109b8575b50508160011b916000199060031b1c19161790555b600435604481013590360360221901811215610198576004350160018060401b0360048201351161019857600481013560051b3603602482011361019857600160401b6004820135116107565760028201805460048301359182905590811161093c575b5060248101906002830160005260206000206000925b6004830135841061081e5784610607606460043501600435600401610e67565b919060038201906001600160401b038411610756576106268254610d64565b601f81116107e1575b50600090601f851160011461077757600794916000918361076c575b50508160011b916000199060031b1c19161790555b6004810180546001600160a01b031916331790556064600582015542600682015501805460ff1990811660019081179092559054600160401b811015610756578060016106b09201600155610cf3565b81549060031b9033821b9160018060a01b03901b191617905533600052600260205260016040600020918254161790556106eb600954610eb0565b6009557f023c5efe572c42192271951adb0e77f97d7fc84bc761d026189ac0861734682461071d600480350180610e67565b919082604051916040835281604084015260608301376000606084830101524260208201526060813394601f80199101168101030190a2005b634e487b7160e01b600052604160045260246000fd5b01359050858061064b565b601f198516918360005260206000209260005b8181106107c9575091600193918760079894106107af575b505050811b019055610660565b0135600019600384901b60f8161c191690558580806107a2565b9193602060018192878701358155019501920161078a565b61080e90836000526020600020601f870160051c81019160208810610814575b601f0160051c0190610e99565b8461062f565b9091508190610801565b61082b8160248501610e67565b906001600160401b038211610756576108448454610d64565b601f811161090a575b50600090601f831160011461089a57928260019493602093869560009261088f575b5050600019600383901b1c191690841b1785555b019201930192906105e7565b013590508a8061086f565b8460005260206000209160005b601f19851681106108f2575083602093600196938796938794601f198116106108d8575b505050811b018555610883565b0135600019600384901b60f8161c191690558a80806108cb565b909260206001819286860135815501940191016108a7565b61093690856000526020600020601f850160051c8101916020861061081457601f0160051c0190610e99565b8761084d565b60028301600052602060002090600483013582015b81830181106109615750506105d1565b8061096e60019254610d64565b8061097b575b5001610951565b601f811183146109915750600081555b86610974565b6000908282526109af601f60208420920160051c8201858301610e99565b8183555561098b565b013590508480610558565b601f198216948360005260206000209160005b878110610a115750836001959697106109f7575b505050811b01905561056d565b0135600019600384901b60f8161c191690558480806109ea565b909260206001819286860135815501940191016109d6565b610a5590836000526020600020601f840160051c8101916020851061081457601f0160051c0190610e99565b8461053e565b0135905083806104ec565b601f198216938360005260206000209160005b868110610ab35750836001959610610a99575b505050811b018155610501565b0135600019600384901b60f8161c19169055838080610a8c565b90926020600181928686013581550194019101610a79565b610af790836000526020600020601f840160051c8101916020851061081457601f0160051c0190610e99565b836104d3565b604051630ea075bf60e21b8152600490fd5b34610198576020366003190112610198576004356001600160a01b03811690819003610198576000526002602052602060ff604060002054166040519015158152f35b3461019857600036600319011261019857602060405160c88152f35b34610198576020366003190112610198576004356001600160a01b038116908190036101985760005260056020526020604060002054604051908152f35b346101985760203660031901126101985760043560015481101561019857610bd5602091610cf3565b905460405160039290921b1c6001600160a01b03168152f35b34610198576000366003190112610198576007546040516001600160a01b039091168152602090f35b34610198576020366003190112610198576004356001600160a01b038116908190036101985760005260046020526020604060002054604051908152f35b34610198576000366003190112610198576006546040516001600160a01b039091168152602090f35b3461019857600036600319011261019857602060405160058152f35b34610198576020366003190112610198576004356001600160a01b038116908190036101985760005260036020526020604060002054604051908152f35b34610198576000366003190112610198576020906009548152f35b600154811015610d0e57600160005260206000200190600090565b634e487b7160e01b600052603260045260246000fd5b919082519283825260005b848110610d50575050826000602080949584010152601f8019910116010190565b602081830181015184830182015201610d2f565b90600182811c92168015610d94575b6020831014610d7e57565b634e487b7160e01b600052602260045260246000fd5b91607f1691610d73565b601f909101601f19168101906001600160401b0382119082101761075657604052565b9060405191826000825492610dd584610d64565b908184526001948581169081600014610e445750600114610e01575b5050610dff92500383610d9e565b565b9093915060005260209081600020936000915b818310610e2c575050610dff93508201013880610df1565b85548884018501529485019487945091830191610e14565b915050610dff94506020925060ff191682840152151560051b8201013880610df1565b903590601e198136030182121561019857018035906001600160401b0382116101985760200191813603831361019857565b818110610ea4575050565b60008155600101610e99565b60001981146103b45760010190565b3d15610ef9573d906001600160401b0382116107565760405191610eed601f8201601f191660200184610d9e565b82523d6000602084013e565b606090565b919082018092116103b45756fea264697066735822122035ecd75365cae329e1140fdf231c6344c584a25d0309414d59940e5af2f4a6f464736f6c63430008130033",
  "linkReferences": {},
  "deployedLinkReferences": {}
}